{
  "address": "0xD7dd1d3a1d93Fcca828d41a3bc6c45b9E6024743",
  "abi": [
    {
      "inputs": [],
      "stateMutability": "nonpayable",
      "type": "constructor"
    },
    {
      "inputs": [],
      "name": "implementation",
      "outputs": [
        {
          "internalType": "address",
          "name": "",
          "type": "address"
        }
      ],
      "stateMutability": "view",
      "type": "function"
    },
    {
      "inputs": [
        {
          "internalType": "address",
          "name": "_dao",
          "type": "address"
        },
        {
          "internalType": "bytes",
          "name": "_data",
          "type": "bytes"
        }
      ],
      "name": "prepareInstallation",
      "outputs": [
        {
          "internalType": "address",
          "name": "plugin",
          "type": "address"
        },
        {
          "components": [
            {
              "internalType": "address[]",
              "name": "helpers",
              "type": "address[]"
            },
            {
              "components": [
                {
                  "internalType": "enum PermissionLib.Operation",
                  "name": "operation",
                  "type": "uint8"
                },
                {
                  "internalType": "address",
                  "name": "where",
                  "type": "address"
                },
                {
                  "internalType": "address",
                  "name": "who",
                  "type": "address"
                },
                {
                  "internalType": "address",
                  "name": "condition",
                  "type": "address"
                },
                {
                  "internalType": "bytes32",
                  "name": "permissionId",
                  "type": "bytes32"
                }
              ],
              "internalType": "struct PermissionLib.MultiTargetPermission[]",
              "name": "permissions",
              "type": "tuple[]"
            }
          ],
          "internalType": "struct IPluginSetup.PreparedSetupData",
          "name": "preparedSetupData",
          "type": "tuple"
        }
      ],
      "stateMutability": "nonpayable",
      "type": "function"
    },
    {
      "inputs": [
        {
          "internalType": "address",
          "name": "_dao",
          "type": "address"
        },
        {
          "components": [
            {
              "internalType": "address",
              "name": "plugin",
              "type": "address"
            },
            {
              "internalType": "address[]",
              "name": "currentHelpers",
              "type": "address[]"
            },
            {
              "internalType": "bytes",
              "name": "data",
              "type": "bytes"
            }
          ],
          "internalType": "struct IPluginSetup.SetupPayload",
          "name": "_payload",
          "type": "tuple"
        }
      ],
      "name": "prepareUninstallation",
      "outputs": [
        {
          "components": [
            {
              "internalType": "enum PermissionLib.Operation",
              "name": "operation",
              "type": "uint8"
            },
            {
              "internalType": "address",
              "name": "where",
              "type": "address"
            },
            {
              "internalType": "address",
              "name": "who",
              "type": "address"
            },
            {
              "internalType": "address",
              "name": "condition",
              "type": "address"
            },
            {
              "internalType": "bytes32",
              "name": "permissionId",
              "type": "bytes32"
            }
          ],
          "internalType": "struct PermissionLib.MultiTargetPermission[]",
          "name": "permissions",
          "type": "tuple[]"
        }
      ],
      "stateMutability": "view",
      "type": "function"
    },
    {
      "inputs": [
        {
          "internalType": "address",
          "name": "_dao",
          "type": "address"
        },
        {
          "internalType": "uint16",
          "name": "_currentBuild",
          "type": "uint16"
        },
        {
          "components": [
            {
              "internalType": "address",
              "name": "plugin",
              "type": "address"
            },
            {
              "internalType": "address[]",
              "name": "currentHelpers",
              "type": "address[]"
            },
            {
              "internalType": "bytes",
              "name": "data",
              "type": "bytes"
            }
          ],
          "internalType": "struct IPluginSetup.SetupPayload",
          "name": "_payload",
          "type": "tuple"
        }
      ],
      "name": "prepareUpdate",
      "outputs": [
        {
          "internalType": "bytes",
          "name": "initData",
          "type": "bytes"
        },
        {
          "components": [
            {
              "internalType": "address[]",
              "name": "helpers",
              "type": "address[]"
            },
            {
              "components": [
                {
                  "internalType": "enum PermissionLib.Operation",
                  "name": "operation",
                  "type": "uint8"
                },
                {
                  "internalType": "address",
                  "name": "where",
                  "type": "address"
                },
                {
                  "internalType": "address",
                  "name": "who",
                  "type": "address"
                },
                {
                  "internalType": "address",
                  "name": "condition",
                  "type": "address"
                },
                {
                  "internalType": "bytes32",
                  "name": "permissionId",
                  "type": "bytes32"
                }
              ],
              "internalType": "struct PermissionLib.MultiTargetPermission[]",
              "name": "permissions",
              "type": "tuple[]"
            }
          ],
          "internalType": "struct IPluginSetup.PreparedSetupData",
          "name": "preparedSetupData",
          "type": "tuple"
        }
      ],
      "stateMutability": "nonpayable",
      "type": "function"
    },
    {
      "inputs": [
        {
          "internalType": "bytes4",
          "name": "_interfaceId",
          "type": "bytes4"
        }
      ],
      "name": "supportsInterface",
      "outputs": [
        {
          "internalType": "bool",
          "name": "",
          "type": "bool"
        }
      ],
      "stateMutability": "view",
      "type": "function"
    }
  ],
  "transactionHash": "0xaf5b62ef4aa31cb9781d26e7c59586377fac3f51b1414f03a60da49acaf9e2b2",
  "args": [],
  "numDeployments": 1,
  "solcInputHash": "e992c3775126813ed07e7279e10be9d3",
  "bytecode": "0x60a060405234801561001057600080fd5b5060405161001d9061004b565b604051809103906000f080158015610039573d6000803e3d6000fd5b506001600160a01b0316608052610058565b6115fa806112eb83390190565b6080516112566100956000396000818160ad015281816102210152818161031b015281816104290152818161052e015261061801526112566000f3fe60806040523480156200001157600080fd5b50600436106200006f5760003560e01c80639cb0a12411620000565780639cb0a12414620000d8578063a8a9c29e14620000fe578063f10832f1146200012557600080fd5b806301ffc9a714620000745780635c60da1b14620000a0575b600080fd5b6200008b6200008536600462000738565b6200014c565b60405190151581526020015b60405180910390f35b6040516001600160a01b037f000000000000000000000000000000000000000000000000000000000000000016815260200162000097565b620000ef620000e93660046200079a565b62000184565b60405162000097919062000855565b620001156200010f366004620008a2565b620003c8565b60405162000097929190620009f1565b6200013c6200013636600462000a23565b620003f0565b6040516200009792919062000aad565b60006001600160e01b0319821663099718b560e41b14806200017e57506301ffc9a760e01b6001600160e01b03198316145b92915050565b6040805160028082526060828101909352816020015b6040805160a0810182526000808252602080830182905292820181905260608201819052608082015282526000199092019101816200019a5750506040805160a081018252600181526001600160a01b03868116602080840191909152928201529192506060820190620002119085018562000ad9565b6001600160a01b031681526020017f00000000000000000000000000000000000000000000000000000000000000006001600160a01b0316634ec7ac236040518163ffffffff1660e01b8152600401602060405180830381865afa1580156200027e573d6000803e3d6000fd5b505050506040513d601f19601f82011682018060405250810190620002a4919062000af7565b81525081600081518110620002bd57620002bd62000b11565b60209081029190910101526040805160a081019091528060018152602090810190620002ec9085018562000ad9565b6001600160a01b03168152602001846001600160a01b0316815260200160006001600160a01b031681526020017f00000000000000000000000000000000000000000000000000000000000000006001600160a01b03166397a6392d6040518163ffffffff1660e01b8152600401602060405180830381865afa15801562000378573d6000803e3d6000fd5b505050506040513d601f19601f820116820180604052508101906200039e919062000af7565b81525081600181518110620003b757620003b762000b11565b602002602001018190525092915050565b6060620003e8604051806040016040528060608152602001606081525090565b935093915050565b600062000410604051806040016040528060608152602001606081525090565b6040516001600160a01b038616602482015262000491907f00000000000000000000000000000000000000000000000000000000000000009060440160408051601f198184030181529190526020810180517bffffffffffffffffffffffffffffffffffffffffffffffffffffffff1663189acdbd60e31b179052620006d1565b6040805160028082526060820190925291935060009190816020015b6040805160a081018252600080825260208083018290529282018190526060820181905260808201528252600019909201910181620004ad579050506040805160a081019091529091508060008152602001876001600160a01b031681526020016001600160a01b0380168152602001846001600160a01b031681526020017f00000000000000000000000000000000000000000000000000000000000000006001600160a01b0316634ec7ac236040518163ffffffff1660e01b8152600401602060405180830381865afa1580156200058b573d6000803e3d6000fd5b505050506040513d601f19601f82011682018060405250810190620005b1919062000af7565b81525081600081518110620005ca57620005ca62000b11565b60209081029190910101526040805160a081019091528060008152602001846001600160a01b03168152602001876001600160a01b0316815260200160006001600160a01b031681526020017f00000000000000000000000000000000000000000000000000000000000000006001600160a01b03166397a6392d6040518163ffffffff1660e01b8152600401602060405180830381865afa15801562000675573d6000803e3d6000fd5b505050506040513d601f19601f820116820180604052508101906200069b919062000af7565b81525081600181518110620006b457620006b462000b11565b602002602001018190525080826020018190525050935093915050565b6000620006df8383620006e6565b9392505050565b60008282604051620006f8906200072a565b6200070592919062000b27565b604051809103906000f08015801562000722573d6000803e3d6000fd5b509392505050565b6106fe8062000b4c83390190565b6000602082840312156200074b57600080fd5b81356001600160e01b031981168114620006df57600080fd5b80356001600160a01b03811681146200077c57600080fd5b919050565b6000606082840312156200079457600080fd5b50919050565b60008060408385031215620007ae57600080fd5b620007b98362000764565b9150602083013567ffffffffffffffff811115620007d657600080fd5b620007e48582860162000781565b9150509250929050565b60008151600381106200081157634e487b7160e01b600052602160045260246000fd5b8352506020818101516001600160a01b0390811691840191909152604080830151821690840152606080830151909116908301526080908101519082015260a00190565b6020808252825182820181905260009190848201906040850190845b81811015620008965762000887838551620007ee565b93850193925060010162000871565b50909695505050505050565b600080600060608486031215620008b857600080fd5b620008c38462000764565b9250602084013561ffff81168114620008db57600080fd5b9150604084013567ffffffffffffffff811115620008f857600080fd5b620009068682870162000781565b9150509250925092565b6000815180845260005b8181101562000938576020818501810151868301820152016200091a565b506000602082860101526020601f19601f83011685010191505092915050565b805160408084528151908401819052600091602091908201906060860190845b818110156200099f5783516001600160a01b03168352928401929184019160010162000978565b50508483015186820387850152805180835290840192506000918401905b80831015620009e657620009d3828551620007ee565b91508484019350600183019250620009bd565b509695505050505050565b60408152600062000a06604083018562000910565b828103602084015262000a1a818562000958565b95945050505050565b60008060006040848603121562000a3957600080fd5b62000a448462000764565b9250602084013567ffffffffffffffff8082111562000a6257600080fd5b818601915086601f83011262000a7757600080fd5b81358181111562000a8757600080fd5b87602082850101111562000a9a57600080fd5b6020830194508093505050509250925092565b6001600160a01b038316815260406020820152600062000ad1604083018462000958565b949350505050565b60006020828403121562000aec57600080fd5b620006df8262000764565b60006020828403121562000b0a57600080fd5b5051919050565b634e487b7160e01b600052603260045260246000fd5b6001600160a01b038316815260406020820152600062000ad160408301846200091056fe60806040526040516106fe3803806106fe83398101604081905261002291610319565b61002e82826000610035565b5050610436565b61003e8361006b565b60008251118061004b5750805b156100665761006483836100ab60201b6100291760201c565b505b505050565b610074816100d7565b6040516001600160a01b038216907fbc7cd75a20ee27fd9adebab32041f755214dbc6bffa90cc0225b39da2e5c2d3b90600090a250565b60606100d083836040518060600160405280602781526020016106d7602791396101a9565b9392505050565b6100ea8161022260201b6100551760201c565b6101515760405162461bcd60e51b815260206004820152602d60248201527f455243313936373a206e657720696d706c656d656e746174696f6e206973206e60448201526c1bdd08184818dbdb9d1c9858dd609a1b60648201526084015b60405180910390fd5b806101887f360894a13ba1a3210667c828492db98dca3e2076cc3735a920a3ca505d382bbc60001b61023160201b6100641760201c565b80546001600160a01b0319166001600160a01b039290921691909117905550565b6060600080856001600160a01b0316856040516101c691906103e7565b600060405180830381855af49150503d8060008114610201576040519150601f19603f3d011682016040523d82523d6000602084013e610206565b606091505b50909250905061021886838387610234565b9695505050505050565b6001600160a01b03163b151590565b90565b606083156102a357825160000361029c576001600160a01b0385163b61029c5760405162461bcd60e51b815260206004820152601d60248201527f416464726573733a2063616c6c20746f206e6f6e2d636f6e74726163740000006044820152606401610148565b50816102ad565b6102ad83836102b5565b949350505050565b8151156102c55781518083602001fd5b8060405162461bcd60e51b81526004016101489190610403565b634e487b7160e01b600052604160045260246000fd5b60005b838110156103105781810151838201526020016102f8565b50506000910152565b6000806040838503121561032c57600080fd5b82516001600160a01b038116811461034357600080fd5b60208401519092506001600160401b038082111561036057600080fd5b818501915085601f83011261037457600080fd5b815181811115610386576103866102df565b604051601f8201601f19908116603f011681019083821181831017156103ae576103ae6102df565b816040528281528860208487010111156103c757600080fd5b6103d88360208301602088016102f5565b80955050505050509250929050565b600082516103f98184602087016102f5565b9190910192915050565b60208152600082518060208401526104228160408501602087016102f5565b601f01601f19169190910160400192915050565b610292806104456000396000f3fe60806040523661001357610011610017565b005b6100115b610027610022610067565b61009f565b565b606061004e838360405180606001604052806027815260200161025f602791396100c3565b9392505050565b6001600160a01b03163b151590565b90565b600061009a7f360894a13ba1a3210667c828492db98dca3e2076cc3735a920a3ca505d382bbc546001600160a01b031690565b905090565b3660008037600080366000845af43d6000803e8080156100be573d6000f35b3d6000fd5b6060600080856001600160a01b0316856040516100e0919061020f565b600060405180830381855af49150503d806000811461011b576040519150601f19603f3d011682016040523d82523d6000602084013e610120565b606091505b50915091506101318683838761013b565b9695505050505050565b606083156101af5782516000036101a8576001600160a01b0385163b6101a85760405162461bcd60e51b815260206004820152601d60248201527f416464726573733a2063616c6c20746f206e6f6e2d636f6e747261637400000060448201526064015b60405180910390fd5b50816101b9565b6101b983836101c1565b949350505050565b8151156101d15781518083602001fd5b8060405162461bcd60e51b815260040161019f919061022b565b60005b838110156102065781810151838201526020016101ee565b50506000910152565b600082516102218184602087016101eb565b9190910192915050565b602081526000825180602084015261024a8160408501602087016101eb565b601f01601f1916919091016040019291505056fe416464726573733a206c6f772d6c6576656c2064656c65676174652063616c6c206661696c6564a164736f6c6343000811000a416464726573733a206c6f772d6c6576656c2064656c65676174652063616c6c206661696c6564a164736f6c6343000811000a60a06040523060805234801561001457600080fd5b5061001d610022565b6100e1565b600054610100900460ff161561008e5760405162461bcd60e51b815260206004820152602760248201527f496e697469616c697a61626c653a20636f6e747261637420697320696e697469604482015266616c697a696e6760c81b606482015260840160405180910390fd5b60005460ff908116146100df576000805460ff191660ff9081179091556040519081527f7f26b83ff96e1f2b6a682f133852f6798a09c465da95921460cefb38474024989060200160405180910390a15b565b6080516114e26101186000396000818161046b015281816104f00152818161077b0152818161080001526108ea01526114e26000f3fe6080604052600436106100e85760003560e01c80634ec7ac231161008a5780636a938567116100595780636a9385671461027157806397a6392d146102a2578063c4d66de8146102d6578063c9c4bfca146102f657600080fd5b80634ec7ac23146101f25780634f1ef2861461023457806352d1902d146102475780635c60da1b1461025c57600080fd5b80633ee3f499116100c65780633ee3f499146101645780634162169f1461018457806341de6830146101b657806345af7ceb146101d257600080fd5b806301ffc9a7146100ed5780632675fdd0146101225780633659cfe614610142575b600080fd5b3480156100f957600080fd5b5061010d610108366004611196565b61032a565b60405190151581526020015b60405180910390f35b34801561012e57600080fd5b5061010d61013d3660046111d5565b610370565b34801561014e57600080fd5b5061016261015d366004611274565b610461565b005b34801561017057600080fd5b5061016261017f366004611291565b6105dc565b34801561019057600080fd5b5060c9546001600160a01b03165b6040516001600160a01b039091168152602001610119565b3480156101c257600080fd5b50600060405161011991906112aa565b3480156101de57600080fd5b506101626101ed366004611291565b6106b1565b3480156101fe57600080fd5b506102267f968c17ebf04aa1b7544168e69314cdab6b69ba813bb6080d49c0c40a65560f5881565b604051908152602001610119565b6101626102423660046112e8565b610771565b34801561025357600080fd5b506102266108dd565b34801561026857600080fd5b5061019e6109a2565b34801561027d57600080fd5b5061010d61028c366004611291565b61012d6020526000908152604090205460ff1681565b3480156102ae57600080fd5b506102267feb67c2f173ad0b61dd8c0adfefc064e92df0282ff43f71a91df351aca93e73b081565b3480156102e257600080fd5b506101626102f1366004611274565b6109da565b34801561030257600080fd5b506102267f821b6e3a557148015a918c89e5d092e878a69854a2d1a410635f771bd5a8a3f581565b60006001600160e01b03198216635fcd72cd60e11b148061035b57506001600160e01b031982166302675fdd60e41b145b8061036a575061036a82610af4565b92915050565b6000336001600160a01b038716141580610398575060c9546001600160a01b03878116911614155b156103cc57604051631a76c09360e11b81523360048201526001600160a01b03871660248201526044015b60405180910390fd5b7f968c17ebf04aa1b7544168e69314cdab6b69ba813bb6080d49c0c40a65560f58841461043557604051634c92505360e01b8152600481018590527f968c17ebf04aa1b7544168e69314cdab6b69ba813bb6080d49c0c40a65560f5860248201526044016103c3565b600061044383850185611291565b600090815261012d602052604090205460ff16979650505050505050565b6001600160a01b037f00000000000000000000000000000000000000000000000000000000000000001630036104ee5760405162461bcd60e51b815260206004820152602c60248201527f46756e6374696f6e206d7573742062652063616c6c6564207468726f7567682060448201526b19195b1959d85d1958d85b1b60a21b60648201526084016103c3565b7f00000000000000000000000000000000000000000000000000000000000000006001600160a01b03166105497f360894a13ba1a3210667c828492db98dca3e2076cc3735a920a3ca505d382bbc546001600160a01b031690565b6001600160a01b0316146105b45760405162461bcd60e51b815260206004820152602c60248201527f46756e6374696f6e206d7573742062652063616c6c6564207468726f7567682060448201526b6163746976652070726f787960a01b60648201526084016103c3565b6105bd81610b19565b604080516000808252602082019092526105d991839190610b52565b50565b60c9547feb67c2f173ad0b61dd8c0adfefc064e92df0282ff43f71a91df351aca93e73b09061061a906001600160a01b031630335b84600036610cf7565b600082815261012d602052604090205460ff1615156001036106595760405163d684f56360e01b815260048101839052600160248201526044016103c3565b600082815261012d602052604090819020805460ff19166001179055517f4d64e211ba1289183715937d8d6f06aaa714076794e3f247331a011ed63a23f0906106a59084815260200190565b60405180910390a15050565b60c9547feb67c2f173ad0b61dd8c0adfefc064e92df0282ff43f71a91df351aca93e73b0906106ea906001600160a01b03163033610611565b600082815261012d602052604081205460ff16151590036107285760405163d684f56360e01b815260048101839052600060248201526044016103c3565b600082815261012d602052604090819020805460ff19169055517f89a77869d7b8125ba16e08a92ddc8cc26fb1fa47241971167954489a5e66c255906106a59084815260200190565b6001600160a01b037f00000000000000000000000000000000000000000000000000000000000000001630036107fe5760405162461bcd60e51b815260206004820152602c60248201527f46756e6374696f6e206d7573742062652063616c6c6564207468726f7567682060448201526b19195b1959d85d1958d85b1b60a21b60648201526084016103c3565b7f00000000000000000000000000000000000000000000000000000000000000006001600160a01b03166108597f360894a13ba1a3210667c828492db98dca3e2076cc3735a920a3ca505d382bbc546001600160a01b031690565b6001600160a01b0316146108c45760405162461bcd60e51b815260206004820152602c60248201527f46756e6374696f6e206d7573742062652063616c6c6564207468726f7567682060448201526b6163746976652070726f787960a01b60648201526084016103c3565b6108cd82610b19565b6108d982826001610b52565b5050565b6000306001600160a01b037f0000000000000000000000000000000000000000000000000000000000000000161461097d5760405162461bcd60e51b815260206004820152603860248201527f555550535570677261646561626c653a206d757374206e6f742062652063616c60448201527f6c6564207468726f7567682064656c656761746563616c6c000000000000000060648201526084016103c3565b507f360894a13ba1a3210667c828492db98dca3e2076cc3735a920a3ca505d382bbc90565b60006109d57f360894a13ba1a3210667c828492db98dca3e2076cc3735a920a3ca505d382bbc546001600160a01b031690565b905090565b600054610100900460ff16158080156109fa5750600054600160ff909116105b80610a145750303b158015610a14575060005460ff166001145b610a865760405162461bcd60e51b815260206004820152602e60248201527f496e697469616c697a61626c653a20636f6e747261637420697320616c72656160448201527f647920696e697469616c697a656400000000000000000000000000000000000060648201526084016103c3565b6000805460ff191660011790558015610aa9576000805461ff0019166101001790555b610ab282610db3565b80156108d9576000805461ff0019169055604051600181527f7f26b83ff96e1f2b6a682f133852f6798a09c465da95921460cefb3847402498906020016106a5565b60006001600160e01b031982166302675fdd60e41b148061036a575061036a82610e27565b60c9547f821b6e3a557148015a918c89e5d092e878a69854a2d1a410635f771bd5a8a3f5906108d9906001600160a01b03163033610611565b7f4910fdfa16fed3260ed0e7147f7cc6da11a60208b5b9406d12a635614ffd91435460ff1615610b8a57610b8583610e77565b505050565b826001600160a01b03166352d1902d6040518163ffffffff1660e01b8152600401602060405180830381865afa925050508015610be4575060408051601f3d908101601f19168201909252610be1918101906113ac565b60015b610c565760405162461bcd60e51b815260206004820152602e60248201527f45524331393637557067726164653a206e657720696d706c656d656e7461746960448201527f6f6e206973206e6f74205555505300000000000000000000000000000000000060648201526084016103c3565b7f360894a13ba1a3210667c828492db98dca3e2076cc3735a920a3ca505d382bbc8114610ceb5760405162461bcd60e51b815260206004820152602960248201527f45524331393637557067726164653a20756e737570706f727465642070726f7860448201527f6961626c6555554944000000000000000000000000000000000000000000000060648201526084016103c3565b50610b85838383610f42565b604051637ef7c88360e11b81526001600160a01b0387169063fdef910690610d2b90889088908890889088906004016113c5565b602060405180830381865afa158015610d48573d6000803e3d6000fd5b505050506040513d601f19601f82011682018060405250810190610d6c9190611419565b610dab57604051630cb6f8ed60e21b81526001600160a01b038088166004830152808716602483015285166044820152606481018490526084016103c3565b505050505050565b600054610100900460ff16610e1e5760405162461bcd60e51b815260206004820152602b60248201527f496e697469616c697a61626c653a20636f6e7472616374206973206e6f74206960448201526a6e697469616c697a696e6760a81b60648201526084016103c3565b6105d981610f6d565b60006001600160e01b0319821663041de68360e41b1480610e5857506001600160e01b031982166352d1902d60e01b145b8061036a57506301ffc9a760e01b6001600160e01b031983161461036a565b6001600160a01b0381163b610ef45760405162461bcd60e51b815260206004820152602d60248201527f455243313936373a206e657720696d706c656d656e746174696f6e206973206e60448201527f6f74206120636f6e74726163740000000000000000000000000000000000000060648201526084016103c3565b7f360894a13ba1a3210667c828492db98dca3e2076cc3735a920a3ca505d382bbc805473ffffffffffffffffffffffffffffffffffffffff19166001600160a01b0392909216919091179055565b610f4b83611007565b600082511180610f585750805b15610b8557610f678383611047565b50505050565b600054610100900460ff16610fd85760405162461bcd60e51b815260206004820152602b60248201527f496e697469616c697a61626c653a20636f6e7472616374206973206e6f74206960448201526a6e697469616c697a696e6760a81b60648201526084016103c3565b60c9805473ffffffffffffffffffffffffffffffffffffffff19166001600160a01b0392909216919091179055565b61101081610e77565b6040516001600160a01b038216907fbc7cd75a20ee27fd9adebab32041f755214dbc6bffa90cc0225b39da2e5c2d3b90600090a250565b606061106c83836040518060600160405280602781526020016114af60279139611073565b9392505050565b6060600080856001600160a01b031685604051611090919061145f565b600060405180830381855af49150503d80600081146110cb576040519150601f19603f3d011682016040523d82523d6000602084013e6110d0565b606091505b50915091506110e1868383876110eb565b9695505050505050565b6060831561115a578251600003611153576001600160a01b0385163b6111535760405162461bcd60e51b815260206004820152601d60248201527f416464726573733a2063616c6c20746f206e6f6e2d636f6e747261637400000060448201526064016103c3565b5081611164565b611164838361116c565b949350505050565b81511561117c5781518083602001fd5b8060405162461bcd60e51b81526004016103c3919061147b565b6000602082840312156111a857600080fd5b81356001600160e01b03198116811461106c57600080fd5b6001600160a01b03811681146105d957600080fd5b6000806000806000608086880312156111ed57600080fd5b85356111f8816111c0565b94506020860135611208816111c0565b935060408601359250606086013567ffffffffffffffff8082111561122c57600080fd5b818801915088601f83011261124057600080fd5b81358181111561124f57600080fd5b89602082850101111561126157600080fd5b9699959850939650602001949392505050565b60006020828403121561128657600080fd5b813561106c816111c0565b6000602082840312156112a357600080fd5b5035919050565b60208101600383106112cc57634e487b7160e01b600052602160045260246000fd5b91905290565b634e487b7160e01b600052604160045260246000fd5b600080604083850312156112fb57600080fd5b8235611306816111c0565b9150602083013567ffffffffffffffff8082111561132357600080fd5b818501915085601f83011261133757600080fd5b813581811115611349576113496112d2565b604051601f8201601f19908116603f01168101908382118183101715611371576113716112d2565b8160405282815288602084870101111561138a57600080fd5b8260208601602083013760006020848301015280955050505050509250929050565b6000602082840312156113be57600080fd5b5051919050565b60006001600160a01b03808816835280871660208401525084604083015260806060830152826080830152828460a0840137600060a0848401015260a0601f19601f85011683010190509695505050505050565b60006020828403121561142b57600080fd5b8151801515811461106c57600080fd5b60005b8381101561145657818101518382015260200161143e565b50506000910152565b6000825161147181846020870161143b565b9190910192915050565b602081526000825180602084015261149a81604085016020870161143b565b601f01601f1916919091016040019291505056fe416464726573733a206c6f772d6c6576656c2064656c65676174652063616c6c206661696c6564a164736f6c6343000811000a",
  "devdoc": {
    "author": "Aragon Association - 2023",
    "kind": "dev",
    "methods": {
      "implementation()": {
        "details": "The implementation can be instantiated via the `new` keyword, cloned via the minimal clones pattern (see [ERC-1167](https://eips.ethereum.org/EIPS/eip-1167)), or proxied via the UUPS pattern (see [ERC-1822](https://eips.ethereum.org/EIPS/eip-1822)).",
        "returns": {
          "_0": "The address of the plugin implementation contract."
        }
      },
      "prepareInstallation(address,bytes)": {
        "params": {
          "_dao": "The address of the installing DAO.",
          "_data": "The bytes-encoded data containing the input parameters for the installation as specified in the plugin's build metadata JSON file."
        },
        "returns": {
          "plugin": "The address of the `Plugin` contract being prepared for installation.",
          "preparedSetupData": "The deployed plugin's relevant data which consists of helpers and permissions."
        }
      },
      "prepareUninstallation(address,(address,address[],bytes))": {
        "params": {
          "_dao": "The address of the uninstalling DAO.",
          "_payload": "The relevant data necessary for the `prepareUninstallation`. See above."
        },
        "returns": {
          "permissions": "The array of multi-targeted permission operations to be applied by the `PluginSetupProcessor` to the uninstalling DAO."
        }
      },
      "prepareUpdate(address,uint16,(address,address[],bytes))": {
        "params": {
          "_currentBuild": "The build number of the plugin to update from.",
          "_dao": "The address of the updating DAO.",
          "_payload": "The relevant data necessary for the `prepareUpdate`. See above."
        },
        "returns": {
          "initData": "The initialization data to be passed to upgradeable contracts when the update is applied in the `PluginSetupProcessor`.",
          "preparedSetupData": "The deployed plugin's relevant data which consists of helpers and permissions."
        }
      },
      "supportsInterface(bytes4)": {
        "params": {
          "_interfaceId": "The ID of the interface."
        },
        "returns": {
          "_0": "Returns `true` if the interface is supported."
        }
      }
    },
    "title": "ValidHashConditionSetup - Release 1, Build 1",
    "version": 1
  },
  "userdoc": {
    "kind": "user",
    "methods": {
      "constructor": {
        "notice": "The contract constructor, that deploys the `ValidHashCondition` plugin logic contract."
      },
      "implementation()": {
        "notice": "Returns the plugin implementation address."
      },
      "prepareInstallation(address,bytes)": {
        "notice": "Prepares the installation of a plugin."
      },
      "prepareUninstallation(address,(address,address[],bytes))": {
        "notice": "Prepares the uninstallation of a plugin."
      },
      "prepareUpdate(address,uint16,(address,address[],bytes))": {
        "notice": "Prepares the update of a plugin."
      },
      "supportsInterface(bytes4)": {
        "notice": "Checks if this or the parent contract supports an interface by its ID."
      }
    },
    "notice": "The setup contract of the `AllowedSignerCondition` plugin.",
    "version": 1
  },
  "storageLayout": {
    "storage": [],
    "types": null
  }
}